:100000000C9478000C94A0000C94A0000C94D20ADC
:100010000C94D20A0C94D20A0C94A0000C94A00068
:100020000C94A0000C94A0000C94A0000C94A000D0
:100030000C94A0000C94A0000C94A0000C94A000C0
:100040000C94510F0C94A0000C9492120C94C412B6
:100050000C94A0000C94A0000C94A0000C94A000A0
:100060000C94A0000C94A00095047E057D069806D3
:10007000DE06FB063E075B079407B10708081A086F
:100080006508470865086508650865086508C003D0
:100090000000000800020100000304070000000047
:1000A0000000000001020408102040800102040842
:1000B00010200102040810200404040404040404B1
:1000C0000202020202020303030303030000000012
:1000D00023002600290000000000250028002B0036
:1000E00000000000240027002A003003F4125D0302
:1000F00011241FBECFEFD8E0DEBFCDBF12E0A0E0DD
:10010000B1E0E0E1F3E302C005900D92A03AB1073F
:10011000D9F724E0A0EAB2E001C01D92A230B207F4
:10012000E1F710E0CEEED0E004C02297FE010E947D
:100130001E17CA3ED107C9F70E9438130C947B19C9
:100140000C940000CF93DF93C0E0D0E02FEF3FEF9F
:100150004FEF50E0BE0183EA92E00E9490092196A1
:10016000C530D10599F783EA92E00E94DE0865E088
:1001700070E080E090E0DF91CF910C94CA0FCF93B4
:10018000DF93C0E0D0E02AE134E640E050E0BE0179
:1001900083EA92E00E9490092196C530D10599F733
:1001A00083EA92E00E94DE0865E070E080E090E083
:1001B000DF91CF910C94CA0FCF93DF93C0E0D0E0D2
:1001C0002AE134E640E050E0BE0183EA92E00E947A
:1001D00090092196C530D10599F72FEF30E0A9019C
:1001E00062E070E083EA92E00E94900983EA92E084
:1001F0000E94DE0865E070E080E090E0DF91CF9142
:100200000C94CA0FCF93DF93C0E0D0E029E039ED22
:1002100049EA50E0BE0183EA92E00E9490092196EB
:10022000C530D10599F783EA92E00E94DE0865E0C7
:1002300070E080E090E0DF91CF910C94CA0FCF93F3
:10024000DF93C0E0D0E029E039ED49EA50E0BE019B
:1002500083EA92E00E9490092196C530D10599F772
:100260002FEF30E0A90162E070E083EA92E00E94A3
:10027000900983EA92E00E94DE0865E070E080E089
:1002800090E0DF91CF910C94CA0FCF93DF93C0E041
:10029000D0E020E03CE84FEF50E0BE0183EA92E07E
:1002A0000E9490092196C530D10599F783EA92E022
:1002B0000E94DE086AE070E080E090E0DF91CF917C
:1002C0000C94CA0FCF93DF93C0E0D0E020E03CE86D
:1002D0004FEF50E0BE0183EA92E00E949009219620
:1002E000C530D10599F72FEF30E0A90162E070E049
:1002F00083EA92E00E94900983EA92E00E94DE087D
:1003000065E070E080E090E0DF91CF910C94CA0F3F
:10031000CF93DF93C0E0D0E020E030E04FEF50E03B
:10032000BE0183EA92E00E9490092196C530D10572
:1003300099F783EA92E00E94DE0865E070E080E0D1
:1003400090E0DF91CF910C94CA0FCF93DF93C0E080
:10035000D0E02FEF30E040E050E0BE0183EA92E0D1
:100360000E9490092196C530D10599F783EA92E061
:100370000E94DE0865E070E080E090E0DF91CF91C0
:100380000C94CA0FCF93DF93C0E0D0E020E030E0C0
:10039000A901BE0183EA92E00E9490092196C5302E
:1003A000D105A1F783EA92E00E94DE0865E070E0E3
:1003B00080E090E0DF91CF910C94CA0F0F931F93D0
:1003C000CF93DF938C010E94C201C0E0D0E0C01740
:1003D000D10791F040E06FEF80E00E94D6099B01C9
:1003E000AC01BE0183EA92E00E94900983EA92E0A8
:1003F0000E94DE082196EBCFDF91CF911F910F91E4
:1004000008958F3130F4682F660F660F660F40E055
:100410002EC08F3340F48F51880F880F880F40E033
:100420006FEF809525C08F3538F441EC480F440FAD
:10043000440F440F6FEF09C08F3748F461EA680F2B
:10044000660F660F660F60954FEF80E011C08F3921
:1004500038F48F574FEF60E0880F880F880F08C07F
:1004600041E6480F440F440F440F409560E08FEF82
:100470000C94D609CF92DF92EF92FF920F931F93C5
:10048000CF93DF9396E2899F6001112400E010E092
:10049000C0E0D0E080ECE82EF12CC8018C0D9D1D51
:1004A000B7010E94C7160E9401029B01AC01BE0168
:1004B00083EA92E00E94900921960A5D1F4FC530A1
:1004C000D10559F783EA92E0DF91CF911F910F9107
:1004D000FF90EF90DF90CF900C94DE080F931F9366
:1004E0008091A0020E943A026AE070E080E090E011
:1004F0000E94CA0F0E949B0F0091100310911103DC
:100500002091120330911303601B710B820B930B2C
:100510006436710581059105D8F08091A002909113
:10052000A1020196823391052CF49093A10280934D
:10053000A00204C01092A1021092A0020E949B0F80
:10054000609310037093110380931203909313032D
:100550001F910F910895E7EBF2E086E4819392E01A
:10056000E63DF907D9F708951092B4021092B3024C
:100570000E949B0F609310037093110380931203EA
:1005800090931303089585EF92E00E947D0C85EF10
:1005900092E00E94F40E83EA92E00E94D1080E9449
:1005A000C20126E040E855E260E070E081E693E0B9
:1005B0000E9430126CE171E081E693E00E94A91381
:1005C00040E855E260E070E086ED92E00E94D50BD5
:1005D00062E081E10E94B51062E080E10E94B51006
:1005E00083E190E09093B6028093B5020E94B4023A
:1005F00062E371E081E693E00E94A91362E371E097
:1006000086ED92E00C94A91362E370E085E00E940D
:100610002D1069E170E080E090E00E94CA0F60E078
:1006200070E085E00E942D1069E170E080E090E0CC
:100630000C94CA0F64E670E085E00E942D106AEF0A
:1006400070E080E090E00E94CA0F60E070E085E01A
:100650000E942D1069E170E080E090E00C94CA0FD8
:10066000CF92DF92EF92FF920F931F939AE0C92EE1
:10067000D12C29E0E22EF12C0BE010E027E030E055
:1006800048E050E066E070E085EF92E00E94630C85
:1006900020E042E064E086ED92E00E94A50B21E0BC
:1006A00043E065E070E083EA92E01F910F91FF90D4
:1006B000EF90DF90CF900C94990886ED92E00C9427
:1006C0004C0BFF920F931F93CF93DF9300D000D07A
:1006D00000D0CDB7DEB78C0161E972E00E940C1644
:1006E00081E693E00E944D11892B09F181E693E0A8
:1006F0000E946611F82E82E7F816C9F0B801CE0103
:1007000001960E9439166F2DCE0101960E94941613
:10071000BC01C8010E942216CE0101960E949E15BE
:1007200069E170E080E090E00E94CA0FDFCFC8016D
:1007300026960FB6F894DEBF0FBECDBFDF91CF91E6
:100740001F910F91FF9008950F931F93CF93DF9305
:10075000CDB7DEB72E970FB6F894DEBF0FBECDBF74
:10076000E091B502F091B6028091B3029091B4028B
:10077000E431F10508F0A9C4EC5CFF4F0C941C17A0
:10078000892B51F585EF92E00E94F40E63E471E04D
:1007900081E693E00E94A91363E471E086ED92E0A4
:1007A0000E94A9130E94A2000E94C2010E94AB02F3
:1007B0002AEA4AEA6AEA85EF92E00E94AE0C2AEA47
:1007C0004AEA6AEA85EF92E00E94B90C81E090E083
:1007D0009093B4028093B3020E946E0286ED92E081
:1007E0000E946C0A892B09F4C0C086ED92E00E9439
:1007F000520A81369105C9F485EF92E00E94D50E28
:100800006EEE71E081E693E00E94A9136EEE71E056
:1008100086ED92E00E94A9130E94AB0265E070E0B1
:1008200080E090E00E94CA0F71C086ED92E00E94C5
:10083000520A8337910589F485EF92E00E94F40E05
:1008400061E571E081E693E00E94A91361E571E042
:1008500086ED92E00E94A91359C086ED92E00E94B5
:10086000520A8737910541F485EF92E00E94B60C59
:1008700080930F0365E00EC086ED92E00E94520A5D
:100880008137910569F485EF92E00E94B60C809360
:100890000F036BEF680F85EF92E00E94B30C22C04C
:1008A00086ED92E00E94520A8037910541F485EF6F
:1008B00092E00E94C10C80930F0365E00EC086EDAC
:1008C00092E00E94520A8F36910501F585EF92E081
:1008D0000E94C10C80930F036BEF680F85EF92E0CD
:1008E0000E94BE0C85EF92E00E94D50E4AE050E0D7
:1008F00060910F0381E693E00E9421144AE050E0EA
:1009000060910F0386ED92E00E9421140E94AB02D9
:1009100065E070E080E090E00E94CA0F86ED92E012
:100920000E94DF0997FFFACF20C0892BB1F485EF31
:1009300092E00E94F40E63E471E086ED92E00E9482
:10094000A9130E94A2000E94C2010E94AB0281E092
:1009500090E09093B4028093B3020E946E0286ED01
:1009600092E00E946C0A892B69F581E693E00E946F
:100970004D11892B09F4D2C3CE0107960E94610361
:10098000BE01695F7F4F86ED92E00E94851363E5AB
:1009900071E0CE0101960E940C16BE01695F7F4F87
:1009A000CE0101960E948116BC0181E693E00E946F
:1009B0009713CE0101960E949E15CE0107960E94C4
:1009C0009E15ACC386ED92E00E94520A87369105CF
:1009D00019F481E090E077C086ED92E00E94520A1F
:1009E0008337910509F076C086ED92E00E941F15CD
:1009F000262F86ED92E02E870E941F15462F86ED4A
:100A000092E04D870E941F152E854D8585EF92E05F
:100A10000E94AE0C86ED92E00E941F15262F86EDF7
:100A200092E02E870E941F15462F86ED92E04D879B
:100A30000E941F152E854D8585EF92E00E94B90C0E
:100A400086ED92E00E941F156093180170931901C2
:100A500080931A0190931B0186ED92E00E941F156E
:100A60006093100170931101809312019093130110
:100A700086ED92E00E941F1560931401709315019A
:100A8000809316019093170186ED92E00E941F1546
:100A900060930C0170930D0180930E0190930F01F0
:100AA0000E94AB022EE130E047EB52E066E486EDB7
:100AB00092E00E94221565E070E080E090E00E94E4
:100AC000CA0F82E090E09093B6028093B5020E9434
:100AD000B4020DC086ED92E00E94520A8336910561
:100AE00031F469E571E086ED92E00E94A91386ED8C
:100AF00092E00E94DF0997FFFACF37CF892BC1F42C
:100B000085EF92E00E94F40E68E871E086ED92E0D5
:100B10000E94A9130E94A2000E94C2010E94AB027F
:100B20001092A20281E090E09093B4028093B3020D
:100B300086ED92E00E946C0A892B69F581E693E0CC
:100B40000E944D11892B09F4AAC0CE0107960E947C
:100B50006103BE01695F7F4F86ED92E00E948513BD
:100B600063E571E0CE0101960E940C16BE01695F3B
:100B70007F4FCE0101960E948116BC0181E693E071
:100B80000E949713CE0101960E949E15CE010796F2
:100B90000E949E1584C086ED92E00E94520A83371F
:100BA000910509F075C086ED92E00E941F15262F71
:100BB00086ED92E02E870E941F15462F86ED92E06B
:100BC0004D870E941F152E854D8585EF92E00E946E
:100BD000AE0C86ED92E00E941F15262F86ED92E066
:100BE0002E870E941F15462F86ED92E04D870E94AA
:100BF0001F152E854D8585EF92E00E94B90C86ED7C
:100C000092E00E941F156093180170931901809360
:100C10001A0190931B0186ED92E00E941F156093CC
:100C2000100170931101809312019093130186EDCE
:100C300092E00E941F156093140170931501809338
:100C400016019093170186ED92E00E941F156093A4
:100C50000C0170930D0180930E0190930F010E947F
:100C6000AB022EE130E047EB52E066E486ED92E025
:100C70000E94221565E070E080E090E00E94CA0FBB
:100C800082E090E09093B6028093B5020E94B40295
:100C900086ED92E00E94DF0997FFFACF4FCF0E94C6
:100CA0009B0F0091100310911103209112033091BA
:100CB0001303601B710B820B930B643F7140810522
:100CC000910508F42BC28091A20290E00E94DE01FF
:100CD0000E949B0F60931003709311038093120383
:100CE000909313038091A2028F5F8093A2028630BB
:100CF00008F414C21092A20211C2892B61F46AE9AD
:100D000071E086ED92E00E94A91381E090E090935B
:100D1000B4028093B30283E090E09093B602809394
:100D2000B5028FEF9FEF90930B0180930A01F4C1FE
:100D3000892BD9F468EA71E081E693E00E94A91357
:100D400068EA71E086ED92E00E94A91380910A01A1
:100D500090910B01019690930B0180930A0181E021
:100D600090E09093B4028093B302E0910A01F09175
:100D70000B01E954FD4F8081813619F484E090E045
:100D8000C7C1813419F485E090E0C2C1893619F4F5
:100D900086E090E0BDC1893419F487E090E0B8C1E5
:100DA000843619F488E090E0B3C1843419F489E002
:100DB00090E0AEC1863409F028C164C1892BE9F501
:100DC0000E94040385EF92E00E94C40C85EF92E03C
:100DD0000E94D50E67EB71E081E693E00E94A913B3
:100DE00067EB71E086ED92E00E94A9130E94A200D9
:100DF0000E94BF001CC0892B01F50E94040385EFEF
:100E000092E00E94C40C85EF92E00E94D50E67EC40
:100E100071E081E693E00E94A91367EC71E086ED32
:100E200092E00E94A9130E94A2000E94DC0081E0CF
:100E300090E09093B4028093B3020E949B0F0091C4
:100E40001003109111032091120330911303601BC2
:100E5000710B820B930B00911801109119012091D5
:100E60001A0130911B01601771078207930708F47C
:100E7000C6C085EF92E00E944D0EB4C0892BE9F503
:100E80000E94040385EF92E00E94CA0D85EF92E074
:100E90000E94130F6FED71E081E693E00E94A913A9
:100EA0006FED71E086ED92E00E94A9130E94A2000E
:100EB0000E9402011CC0892B01F50E94040385EFEA
:100EC00092E00E94CA0D85EF92E00E94130F60EF3E
:100ED00071E081E693E00E94A91360EF71E086ED76
:100EE00092E00E94A9130E94A2000E941F0181E0CB
:100EF00090E09093B4028093B3020E949B0F009104
:100F00001003109111032091120330911303601B01
:100F1000710B820B930B0091100110911101209124
:100F200012013091130155C0892BE9F50E94040389
:100F300085EF92E00E94470D85EF92E00E94320F0C
:100F400069E072E081E693E00E94A91369E072E033
:100F500086ED92E00E94A9130E94A2000E94450122
:100F60001CC0892B01F50E94040385EF92E00E94CA
:100F7000470D85EF92E00E94320F68E172E081E652
:100F800093E00E94A91368E172E086ED92E00E946E
:100F9000A9130E94A2000E94620181E090E0909358
:100FA000B4028093B3020E949B0F00911003109132
:100FB00011032091120330911303601B710B820BFC
:100FC000930B00911401109115012091160130919D
:100FD0001701601771078207930788F085EF92E089
:100FE0000E94F40E60910C0170910D0180910E0130
:100FF00090910F010E94CA0F83E090E089C081E1C7
:101000000E942411019709F07CC08AE090E080C022
:10101000892B09F076C00E941A0385EF92E00E94A6
:10102000F40E6FE272E081E693E00E94A9136FE292
:1010300072E059C0892BD1F485EF92E00E94F40E42
:101040006CE372E081E693E00E94A9136CE372E026
:1010500086ED92E00E94A9130E94A2000E94A501C1
:1010600081E090E09093B4028093B30264EF71E06A
:1010700080E090E00E94CA0F80E10E942411019755
:1010800009F44CC01092B6021092B50245C0892BEB
:1010900009F044C085EF92E00E94F40E6DE472E026
:1010A00081E693E00E94A9136DE472E086ED92E080
:1010B0000E94A9130E94A2000E94C20181E090E058
:1010C0009093B4028093B30229C0892BD1F485EFA9
:1010D00092E00E94F40E60E672E081E693E00E94E6
:1010E000A91360E672E086ED92E00E94A9130E94C7
:1010F000A2000E94880181E090E09093B402809366
:10110000B30280E10E942411019741F48BE090E04A
:101110009093B6028093B5020E94B4022E960FB649
:10112000F894DEBF0FBECDBFDF91CF911F910F911D
:1011300008950F931F93CF93DF93EC017983688316
:101140008B01000F111F060F171F1B830A834C838F
:101150002D8350E0FA01E854FF4FE491F0E0EE0FE8
:10116000FF1FEA52FF4F859194919E878D87FA0168
:10117000EC55FF4F44914F87C8010E943C17988758
:101180008F83009749F0A80160E070E0DF91CF9174
:101190001F910F910C943619DF91CF911F910F91F0
:1011A0000895CF93DF93EC0161E08C810E94B5102C
:1011B00060E08C81DF91CF910C94EE10CF92DF92A2
:1011C000EF92FF920F931F93CF93DF93CDB7DEB7CC
:1011D00029970FB6F894DEBF0FBECDBF8C01DC019E
:1011E00017968D919C911897892B09F48AC00E94BB
:1011F000A70FF801C184D284E384F4846C197D09BB
:101200008E099F09623371058105910580F3F89479
:10121000828193819A8389830780F085E02D7F0105
:10122000BFEFEB1AFB0A80818987F801958105845D
:10123000F685E02DD8011F968C9191FF28C09081F2
:10124000982B98879081809589238F838F818E83B7
:1012500088E08D83288539854D815E816F81898104
:101260009A81D701208337FD522F4A955083562FFC
:1012700039F0331F00C000006083000000C0F2CFCF
:1012800048E03D9160830000019761F732C0908192
:10129000982B98879081809589238F838F818C8369
:1012A00088E08B83288539854B815C816F818981BA
:1012B0009A81D701208337FD522F00C000C0508390
:1012C00000C000C000C000C000C060830000562FF6
:1012D0004A9541F0331F000000C000C000C000C0AC
:1012E00000C0E8CF48E03D9100C0608300C0019796
:1012F00009F778940E94A70FF801618772878387A6
:10130000948729960FB6F894DEBF0FBECDBFDF914C
:10131000CF911F910F91FF90EF90DF90CF900895A4
:10132000CF92DF92EF92FF920F931F93CF93DF93B1
:10133000FC01808191816817790778F5CA01AA2795
:10134000BB27182FC32ED42EE52EFF24DC2D022F11
:10135000C681CC2361F08C9FC0011124192FCC9E33
:1013600060011124DD2D2C9F90011124032FCB014E
:10137000880F991F860F971FA781B085A80FB91FE7
:101380008581FD01329680FF04C0DC9311961C9389
:1013900003C01C931196DC930083DF91CF911F91C2
:1013A0000F91FF90EF90DF90CF900895962F50E02F
:1013B00060E070E0592B682BCB01BA0108952091B1
:1013C00056033091570328173907B9F49091140345
:1013D00080911503981789F0E0911403F0E0EA5E1C
:1013E000FC4F80812091140330E02F5F3F4F2F731B
:1013F00033272093140390E008958FEF9FEF089513
:101400001F93CF93DF93DC015C968D919C915D9748
:10141000009749F481E090E013969C938E93129785
:1014200080E090E03BC05196ED91FC915297509630
:101430002C915097322F30951FB75E964C915E9746
:1014400041FB772770F941FD6095F894408177233F
:1014500011F0422B01C043234083EC012197F1F7A7
:1014600048E0508160FF02C0522B01C053235083DB
:10147000EC012197F1F76695415099F78081772328
:1014800011F0832301C0822B80831FBF5C968D9156
:101490009C915D970197F1F781E090E0DF91CF910A
:1014A0001F9108952091560330915703281739074B
:1014B00081F49091140380911503981751F0E091F5
:1014C0001403F0E0EA5EFC4F8081992787FD909538
:1014D00008958FEF9FEF08952091560330915703A1
:1014E0002817390771F4809115032091140390E0B7
:1014F000805C9F4F821B910960E470E00E94C716D8
:10150000089580E090E008952091560330915703AC
:101510002817390739F48FB7F894109215031092F1
:1015200014038FBF0895E0915603F0915703E81715
:10153000F90769F4A389B4899C91858980958923E9
:101540008C93109257031092560381E0089580E027
:101550000895CF93DF93EC018A8D9B8D892BF1F059
:1015600080915603909157038C179D07B9F000970F
:1015700011F00E94930A8E8D8E7F8E8F109215032C
:1015800010921403D0935703C0935603EB89FC8940
:1015900080819D89892B808381E001C080E0DF917B
:1015A000CF9108951F920F920FB60F9211242F938F
:1015B0003F934F935F936F937F938F939F93AF93DB
:1015C000BF93EF93FF93E0915603F0915703309749
:1015D00009F451C0868DA685B785958581FF04C025
:1015E0008C91892329F447C08C91892309F043C049
:1015F000A389B4899C918589809589238C93868958
:1016000097890197F1F7208D318DA685B78575856E
:1016100058E040E0C9010197F1F7842F90E09595DB
:101620008795482F6C91672309F04068515091F7D6
:10163000868D81FD40958091150390E001968F7312
:10164000992720911403281749F0A0911503B0E0C1
:10165000AA5EBC4F4C938093150303C0868D8160B6
:10166000868F828D938D0197F1F7A389B4898C9130
:101670009589892B8C93FF91EF91BF91AF919F91A9
:101680008F917F916F915F914F913F912F910F902B
:101690000FBE0F901F90189523E732E0FC013183B5
:1016A00020830C94930A1F93CF93DF93EC01162FA2
:1016B0006E8D6695617081E06827812F0E94EE1023
:1016C00061E0812F0E94B510812F90E0FC01EC5564
:1016D000FF4FE491E88BFC01E854FF4FE491F0E008
:1016E000EE0FFF1FEA52FF4F859194919A8B898BE1
:1016F000DF91CF911F9108951F93CF93DF93EC015A
:10170000162F60E0812F0E94B5108E8D81FD04C0E0
:1017100061E0812F0E94EE101C87812F90E0FC0178
:10172000EC55FF4FE491ED87FC01E854FF4FE49145
:10173000F0E0EE0FFF1FE453FF4F859194919F87D8
:101740008E87DF91CF911F910895FF920F931F9382
:10175000CF93DF93EC01F62E522F1B821A8208EEF4
:1017600013E020E030E00C831D832E833F8383E76A
:1017700092E0998388831F8A1E8A198E188E1B8E89
:101780001A8E1D8E1C8E8E8D8E7F50FB81F98E8F52
:10179000642FCE010E94530B6F2DCE01DF91CF91AC
:1017A0001F910F91FF900C947C0BCF93DF93EC0172
:1017B0009A01AB011B8E1A8E198E188E1F8A1E8AF3
:1017C00060E079E08DE390E00E94FD16C9012430CD
:1017D000310520F0B9016350710902C061E070E089
:1017E0007D8F6C8FEC85E63108F068C0B901769585
:1017F00067956431710518F06351710902C061E0A9
:1018000070E07F8B6E8B069718F0C901059702C0B8
:1018100081E090E0998F888FC901880F991F820F0E
:10182000931F96958795969587958D30910510F025
:101830000C9702C081E090E09B8F8A8F2091680016
:10184000E83050F091E0EE3008F490E081E001C023
:10185000880F9A95EAF701C084E0822B8093680094
:101860002C85283038F02E3040F0263148F48CE6B4
:1018700090E008C08DE690E005C08BE690E002C0E5
:1018800080E090E09C8B8B8B283030F481E001C0AD
:10189000880F2A95EAF70DC0822F90E02E3010F4C1
:1018A000089701C00E9791E001C0990F8A95EAF759
:1018B000892F8D8B8C8D9D8D0197F1F7CE01DF9156
:1018C000CF910C94A90ACF92DF92EF92FF920F93DF
:1018D0001F93FC0171836083538342833583248388
:1018E00017830683F186E086D386C2861F910F9107
:1018F000FF90EF90DF90CF900895CF93DF93EC01AE
:1019000061E088810E94B51061E08A810E94B51073
:1019100061E08C810E94B51061E08E810E94B5105B
:1019200061E088850E94B51061E08A850E94B5104B
:101930008FEF8C878D878E878F87888B898B4AEF77
:1019400050E060E070E04A8B5B8B6C8B7D8B4E8B44
:101950005F8B688F798FDF91CF910895FC01648749
:10196000458726870895FC0164870895FC018485D6
:101970000895FC016787408B218B0895FC016787E0
:101980000895FC01878508954F925F926F927F9230
:101990008F929F92AF92BF92CF92DF92EF92FF927F
:1019A0000F931F93CF93DF93EC0160E070E0888189
:1019B0000E942D1060E08A810E94EE1061E08C810F
:1019C0000E94EE1060E070E08E810E942D1060E0B9
:1019D00088850E94EE1061E08A850E94EE10812CBD
:1019E000912CEA88FB880C891D892401612C712CBB
:1019F0004E145F0460067106C8F58C851F921F9215
:101A00001F928F93A12CB12C650120E030E0A90139
:101A1000C301B2010E94571570E088810E942D1009
:101A2000EA88FB880C891D898F851F921F921F925F
:101A30008F9320E030E0A901C301B2010E94571545
:101A400070E08E810E942D1061E070E080E090E0F7
:101A50000E94CA0F8FEF881A980A8DB79EB7089612
:101A60000FB6F8949EBF0FBE8DBFBBCFDF91CF9155
:101A70001F910F91FF90EF90DF90CF90BF90AF90AC
:101A80009F908F907F906F905F904F9008954F92AE
:101A90005F926F927F928F929F92AF92BF92CF92FE
:101AA000DF92EF92FF920F931F93CF93DF93EC019E
:101AB00060E070E088810E942D1060E08A810E94C1
:101AC000EE1061E08C810E94EE1060E070E08E818B
:101AD0000E942D1061E088850E94EE1060E08A85EA
:101AE0000E94EE10812C912CEA88FB880C891D89BC
:101AF0002401612C712C4E145F0460067106C8F538
:101B00008E851F921F921F928F93A12CB12C65017D
:101B100020E030E0A901C301B2010E94571570E036
:101B200088810E942D10EA88FB880C891D8989898B
:101B30001F921F921F928F9320E030E0A901C301F2
:101B4000B2010E94571570E08E810E942D1061E055
:101B500070E080E090E00E94CA0F8FEF881A980A28
:101B60008DB79EB708960FB6F8949EBF0FBE8DBF77
:101B7000BBCFDF91CF911F910F91FF90EF90DF903E
:101B8000CF90BF90AF909F908F907F906F905F901D
:101B90004F9008954F925F926F927F928F929F9293
:101BA000AF92BF92CF92DF92EF92FF920F931F936B
:101BB000CF93DF93EC0160E070E088810E942D10EC
:101BC00061E08A810E94EE1060E08C810E94EE103C
:101BD00060E070E08E810E942D1060E088850E9498
:101BE000EE1061E08A850E94EE10812C912CEA882B
:101BF000FB880C891D892401612C712C4E145F0413
:101C000060067106C8F58D851F921F921F928F93F3
:101C1000A12CB12C650120E030E0A901C301B20183
:101C20000E94571570E088810E942D10EA88FB8879
:101C30000C891D8988891F921F921F928F9320E023
:101C400030E0A901C301B2010E94571570E08E81F6
:101C50000E942D1061E070E080E090E00E94CA0FC9
:101C60008FEF881A980A8DB79EB708960FB6F8942A
:101C70009EBF0FBE8DBFBBCFDF91CF911F910F9144
:101C8000FF90EF90DF90CF90BF90AF909F908F909C
:101C90007F906F905F904F9008952F923F924F9258
:101CA0005F926F927F928F929F92AF92BF92CF92EC
:101CB000DF92EF92FF920F931F93CF93DF93EC018C
:101CC0006C8570E088810E942D1060E08A810E94FE
:101CD000EE1061E08C810E94EE106C8570E08E81C8
:101CE0000E942D1060E088850E94EE1061E08A85D8
:101CF0000E94EE102E883F88812C912C21014818DB
:101D0000590809F43FC0612C712CEE88FF88088DBA
:101D1000198D8C851F921F921F928F93A12CB12C2D
:101D2000650120E030E0A901C301B2010E9457150E
:101D300070E088810E942D10EE88FF88088D198D33
:101D40008F851F921F921F928F9320E030E0A90190
:101D5000C301B2010E94571570E08E810E942D10C0
:101D600061E070E080E090E00E94CA0F8FEF881A77
:101D7000980A8DB79EB708960FB6F8949EBF0FBE0F
:101D80008DBFBCCFDF91CF911F910F91FF90EF904E
:101D9000DF90CF90BF90AF909F908F907F906F908B
:101DA0005F904F903F902F900895CF93DF93EC0179
:101DB00060E08A810E94EE1061E08C810E94EE104A
:101DC0006C8570E088810E942D1060E088850E94FB
:101DD000EE1061E08A850E94EE106F8570E08E81C2
:101DE000DF91CF910C942D10CF93DF93EC0160E045
:101DF0008A810E94EE1060E08C810E94EE106C855A
:101E000070E088810E942D1060E088850E94EE10AD
:101E100060E08A850E94EE106F8570E08E81DF9110
:101E2000CF910C942D10CF93DF93EC0161E08A8168
:101E30000E94EE1060E08C810E94EE106D8570E0D3
:101E400088810E942D1060E088850E94EE1061E07C
:101E50008A850E94EE10688970E08E81DF91CF91B3
:101E60000C942D10CF93DF93EC0160E08A810E94E7
:101E7000EE1061E08C810E94EE106E8570E088812A
:101E80000E942D1061E088850E94EE1060E08A8536
:101E90000E94EE10698970E08E81DF91CF910C94E1
:101EA0002D101F920F920FB60F9211242F933F9374
:101EB0008F939F93AF93BF938091590390915A034F
:101EC000A0915B03B0915C033091580323E0230F92
:101ED0002D3720F40196A11DB11D05C026E8230F62
:101EE0000296A11DB11D209358038093590390932E
:101EF0005A03A0935B03B0935C0380915D039091C0
:101F00005E03A0915F03B09160030196A11DB11D16
:101F100080935D0390935E03A0935F03B09360038F
:101F2000BF91AF919F918F913F912F910F900FBED5
:101F30000F901F9018952FB7F894609159037091E6
:101F40005A0380915B0390915C032FBF08953FB7C4
:101F5000F89480915D0390915E03A0915F03B0912E
:101F6000600326B5A89B05C02F3F19F00196A11D5F
:101F7000B11D3FBF6627782F892F9A2F620F711DE1
:101F8000811D911D42E0660F771F881F991F4A959A
:101F9000D1F70895CF92DF92EF92FF92CF93DF9324
:101FA0006B017C010E94A70FEB01C114D104E10475
:101FB000F10489F00E94A2160E94A70F6C1B7D0BF2
:101FC000683E734090F381E0C81AD108E108F10837
:101FD000C851DC4FEACFDF91CF91FF90EF90DF90B7
:101FE000CF900895789484B5826084BD84B5816073
:101FF00084BD85B5826085BD85B5816085BDEEE611
:10200000F0E0808181608083E1E8F0E010828081EF
:1020100082608083808181608083E0E8F0E080815D
:1020200081608083E1EBF0E0808184608083E0EB7D
:10203000F0E0808181608083EAE7F0E08081846065
:1020400080838081826080838081816080838081C1
:10205000806880831092C10008951F93CF93DF930F
:10206000182FEB0161E00E94B510209711F460E099
:1020700004C0CF3FD10539F461E0812FDF91CF91CA
:102080001F910C94EE10E12FF0E0E057FF4FE49128
:10209000E330F9F048F4E130B9F0E230A1F584B56D
:1020A000806284BDC8BD34C0E730E9F0E83019F182
:1020B000E43049F580918000806280938000D09365
:1020C0008B00C0938A0024C084B5806884BDC7BDDE
:1020D0001FC080918000806880938000D093890029
:1020E000C093880015C08091B00080688093B000D4
:1020F000C093B3000DC08091B00080628093B000A7
:10210000C093B40005C0C038D1050CF0B5CFAFCF37
:10211000DF91CF911F910895833081F028F48130B1
:1021200099F08230A1F008958730A9F08830B9F095
:102130008430D1F4809180008F7D03C08091800035
:102140008F7780938000089584B58F7702C084B51F
:102150008F7D84BD08958091B0008F7703C08091FA
:10216000B0008F7D8093B0000895CF93DF9390E00F
:10217000FC01EC55FF4F2491FC01E854FF4F849182
:10218000882349F190E0880F991FFC01E052FF4F2E
:10219000A591B4918A529F4FFC01C591D4919FB7EC
:1021A000611108C0F8948C91209582238C938881CA
:1021B00082230AC0623051F4F8948C91322F30950A
:1021C00083238C938881822B888304C0F8948C911C
:1021D000822B8C939FBFDF91CF9108950F931F9314
:1021E000CF93DF931F92CDB7DEB7282F30E0F901F0
:1021F000E057FF4F8491F901EC55FF4F1491F9011D
:10220000E854FF4F04910023C9F0882321F069832B
:102210000E948C106981E02FF0E0EE0FFF1FEA5260
:10222000FF4FA591B4919FB7F8948C91611103C0B1
:102230001095812301C0812B8C939FBF0F90DF915C
:10224000CF911F910F910895CF93DF93282F30E006
:10225000F901E057FF4F8491F901EC55FF4FD491FC
:10226000F901E854FF4FC491CC2391F081110E94F1
:102270008C10EC2FF0E0EE0FFF1FE453FF4FA59101
:10228000B4912C912D2381E090E021F480E002C0F4
:1022900080E090E0DF91CF910895FC01818D228D47
:1022A00090E0805C9F4F821B91098F73992708955E
:1022B000FC01918D828D981731F0828DE80FF11D10
:1022C000858D90E008958FEF9FEF0895FC01918D2B
:1022D000828D981761F0828DDF01A80FB11D5D9688
:1022E0008C91928D9F5F9F73928F90E008958FEFF6
:1022F0009FEF08958AEE92E1892B49F080E090E00B
:10230000892B29F00E94EA1281110C940000089593
:10231000FC01848DDF01A80FB11DA35ABF4F2C9182
:10232000848D90E001968F739927848FA689B78951
:102330002C93A089B1898C9180648C93938D848D2A
:10234000981306C00288F389E02D80818F7D8083F9
:102350000895CF93DF93EC01888D8823C9F0EA8933
:10236000FB89808185FD05C0A889B9898C9186FD8E
:102370000FC00FB607FCF5CF808185FFF2CFA8898B
:10238000B9898C9185FFEDCFCE010E948811E7CFEE
:10239000DF91CF910895CF92DF92FF920F931F9319
:1023A000CF93DF931F92CDB7DEB76C0181E0D601EA
:1023B00058968C9358975B969C915B975C968C9102
:1023C0005C97981307C05096ED91FC9151978081CE
:1023D00085FD2EC0F601038D10E00F5F1F4F0F73B8
:1023E0001127F02EF601848DF81211C00FB607FCEC
:1023F000F9CFD6015096ED91FC915197808185FFE0
:10240000F1CFC60169830E9488116981EBCF838D6A
:10241000E80FF11DE35AFF4F6083D6015B960C93E2
:102420005B975296ED91FC915397808180620CC02E
:10243000D6015696ED91FC91579760835096ED9199
:10244000FC91519780818064808381E090E00F90BF
:10245000DF91CF911F910F91FF90DF90CF90089562
:10246000BF92CF92DF92EF92FF92CF93DF93EC0176
:102470006A017B01B22EE889F98982E080834115E7
:1024800081EE580761057105A1F060E079E08DE308
:1024900090E0A70196010E94DB1621503109410905
:1024A00051095695479537952795211580E13807AD
:1024B00098F0E889F989108260E874E88EE190E08C
:1024C000A70196010E94DB162150310941095109EB
:1024D0005695479537952795EC85FD853083EE8594
:1024E000FF852083188EEC89FD89B082EA89FB89FB
:1024F000808180618083EA89FB8980818860808314
:10250000EA89FB89808180688083EA89FB898081F0
:102510008F7D8083DF91CF91FF90EF90DF90CF9000
:10252000BF9008951F920F920FB60F9211242F9310
:102530008F939F93EF93FF93E0917103F091720358
:102540008081E0917703F091780382FD12C0908141
:1025500080917A038F5F8F7320917B03821751F0F4
:10256000E0917A03F0E0EF59FC4F958F80937A0366
:1025700001C08081FF91EF919F918F912F910F90DA
:102580000FBE0F901F9018951F920F920FB60F92CB
:1025900011242F933F934F935F936F937F938F9368
:1025A0009F93AF93BF93EF93FF9381E693E00E94D5
:1025B0008811FF91EF91BF91AF919F918F917F9182
:1025C0006F915F914F913F912F910F900FBE0F90A0
:1025D0001F90189581E693E00E944D1121E0892B10
:1025E00009F420E0822F089510926403109263038F
:1025F00088EE93E0A0E0B0E08093650390936603DB
:10260000A0936703B093680383E892E0909362031A
:102610008093610385EC90E090936E0380936D034B
:1026200084EC90E09093700380936F0380EC90E0D3
:10263000909372038093710381EC90E09093740304
:102640008093730382EC90E09093760380937503FC
:1026500086EC90E0909378038093770310927A034E
:1026600010927B0310927C0310927D0308950895CD
:102670000E94F20F0E9437130E94C302CAE7D1E101
:102680000E94A4032097E1F30E947A11F9CFCF9220
:10269000DF92EF92FF920F931F93CF93DF936C0122
:1026A0007A01EB01E60EF71E00E010E0CE15DF0523
:1026B00061F06991D601ED91FC910190F081E02DDE
:1026C000C6010995080F191FF1CFC801DF91CF91FD
:1026D0001F910F91FF90EF90DF90CF9008956115BB
:1026E000710581F0DB010D900020E9F7AD0141504B
:1026F0005109461B570BDC01ED91FC910280F381DF
:10270000E02D099480E090E00895DC01ED91FC91CA
:10271000DB0114964D915C9115976D917C9102802F
:10272000F381E02D09946FE872E00C946F130F931E
:102730001F93CF93DF93EC010E9485138C01CE0190
:102740000E949313800F911FDF91CF911F910F91E2
:1027500008950F931F93CF93DF93EC010E946F13A3
:102760008C01CE010E949313800F911FDF91CF91B6
:102770001F910F9108958F929F92AF92BF92CF9227
:10278000DF92EF92FF920F931F93CF93DF93CDB71A
:10279000DEB7A1970FB6F894DEBF0FBECDBF7C01A8
:1027A000C42EE52FCB01D22E19A221E02D1510F059
:1027B0002AE0D22E8E010F5D1F4F8D2C912CA12C63
:1027C000B12C6C2D7E2FA50194010E94DB168C2D5F
:1027D000D29E80191124015011098A3014F4805DB1
:1027E00001C0895CF801808321153105410551053F
:1027F00021F0C22EE32FCA01E4CFB801C7010E9425
:102800006F13A1960FB6F894DEBF0FBECDBFDF9158
:10281000CF911F910F91FF90EF90DF90CF90BF90DD
:10282000AF909F908F9008952115310541F4DC0100
:10283000ED91FC910190F081E02D642F09940C94AE
:10284000BB130F931F93CF93DF93EC019A01462F95
:1028500050E060E070E00E9414148C01CE010E94F0
:102860009313800F911FDF91CF911F910F910895C6
:102870000F931F93CF93DF93EC010E949B0F688708
:1028800079878A879B87E881F9810680F781E02D27
:10289000CE01099597FF15C00E949B0F08851985E9
:1028A0002A853B85601B710B820B930B0C811D816C
:1028B0002E813F81601771078207930720F38FEF06
:1028C0009FEFDF91CF911F910F9108950F931F9369
:1028D000CF93DF93EC010E949B0F688779878A87EB
:1028E0009B87E881F9810084F185E02DCE0109956F
:1028F00097FF15C00E949B0F088519852A853B8587
:10290000601B710B820B930B0C811D812E813F810B
:10291000601771078207930720F38FEF9FEFDF9116
:10292000CF911F910F910895CF93DF93EC01CE01CA
:102930000E94661497FD11C08D32910571F09C01C3
:10294000205331092A30310540F0E881F9810680B1
:10295000F781E02DCE010995EACFDF91CF9108955F
:10296000CF92DF92FF920F931F93CF93DF9300D00C
:1029700000D0CDB7DEB76C01062F0E949414FC0185
:1029800097FD4BC020E030E0A901F12C112707FD95
:102990001095E017F107E9F0ED32F105C1F0CF0134
:1029A000C0970A97B0F4AAE0B0E00E9422179B01FA
:1029B000AC01CF01AA2797FDA095BA2F280F391F88
:1029C0004A1F5B1F205331094109510902C0FF24EE
:1029D000F394D601ED91FC910680F781E02DC601BC
:1029E00029833A834B835C830995C6010E94661450
:1029F000FC01C09729813A814B815C810A9748F29A
:102A0000E017F10731F2FF2061F066277727CB014D
:102A1000621B730B840B950B06C060E070E0CB016A
:102A200002C0CA01B9010F900F900F900F90DF9173
:102A3000CF911F910F91FF90DF90CF90089561E0AB
:102A40000C94B014AF92BF92CF92DF92EF92FF92AC
:102A50000F931F93CF93DF936C01790121153105FB
:102A6000B9F08A01C0E0D0E0A62EBB24A7FCB09448
:102A7000C6010E94381497FD0EC08A159B0559F0B7
:102A8000F80181938F012196CE15DF0589F703C0E8
:102A900080E090E001C0CE01DF91CF911F910F91B6
:102AA000FF90EF90DF90CF90BF90AF9008954F923E
:102AB0005F926F927F92AF92BF92CF92DF92EF922E
:102AC000FF920F931F93CF93DF93CDB7DEB729010A
:102AD0003A01621B730B840B950B29893A894B8948
:102AE0005C892A193B094C095D09298B3A8B4B8B70
:102AF0005C8B9B01AC0169897A898B899C890E94D6
:102B0000A316E418F50806091709A80197010E9401
:102B1000FD162A0D3B1D4C1D5D1DCA01B901DF913B
:102B2000CF911F910F91FF90EF90DF90CF90BF90CA
:102B3000AF907F906F905F904F900895FC018081DF
:102B400091810C94D417CF93DF93EC018881998104
:102B5000009711F00E94D417198218821D821C82DE
:102B60001B821A82DF91CF9108950F931F93CF9309
:102B7000DF93EC018B016F5F7F4F888199810E9409
:102B80006318009731F0998388831B830A8381E05F
:102B900001C080E0DF91CF911F910F910895CF93F5
:102BA000DF93EC0188819981892B29F08A819B81AF
:102BB0008617970760F4CE010E94B515882341F06F
:102BC0008C819D81892B19F4E881F981108281E043
:102BD000DF91CF910895EF92FF920F931F93CF93C0
:102BE000DF93EC017B018A01BA010E94CF158111AC
:102BF00004C0CE010E94A31507C01D830C83B7013A
:102C0000888199810E943D19CE01DF91CF911F915A
:102C10000F91FF90EF900895FC01118210821382B2
:102C20001282158214826115710559F0FB01019021
:102C30000020E9F7AF0141505109461B570B0C9496
:102C4000EB150895CF93DF93EC01FB0186179707EF
:102C500061F0608171816115710529F044815581B0
:102C60000E94EB1502C00E94A315CE01DF91CF9107
:102C70000895FC011182108213821282158214823F
:102C80000C942216EF92FF920F931F93CF93DF9332
:102C9000EC017B010C811D816115710511F480E04F
:102CA00016C04115510591F0040F151FB8010E947F
:102CB000CF158823A1F3288139818C819D81B701AB
:102CC000820F931F0E943D191D830C8381E0DF91C9
:102CD000CF911F910F91FF90EF900895CF93DF93C5
:102CE00000D0CDB7DEB769831A8241E050E0BE0163
:102CF0006F5F7F4F0E9442160F900F90DF91CF9130
:102D00000895CF93DF93EC01FB01448155816081ED
:102D100071810E944216811103C0CE010E94A31549
:102D2000CE01DF91CF910895CF93DF93EC010E9404
:102D30006E16811103C0CE010E94A315CE01DF9152
:102D4000CF9108950895DB018F939F930E942217DE
:102D5000BF91AF91A29F800D911DA39F900DB29F37
:102D6000900D11240895AA1BBB1B51E107C0AA1F97
:102D7000BB1FA617B70710F0A61BB70B881F991F1C
:102D80005A95A9F780959095BC01CD01089597FBC0
:102D9000072E16F4009407D077FD09D00E94B316D1
:102DA00007FC05D03EF4909581959F4F089570954E
:102DB00061957F4F0895A1E21A2EAA1BBB1BFD014E
:102DC0000DC0AA1FBB1FEE1FFF1FA217B307E4070A
:102DD000F50720F0A21BB30BE40BF50B661F771F62
:102DE000881F991F1A9469F7609570958095909542
:102DF0009B01AC01BD01CF010895052E97FB1EF488
:102E000000940E94141757FD07D00E94DB1607FCA0
:102E100003D04EF40C94141750954095309521959D
:102E20003F4F4F4F5F4F08959095809570956195F6
:102E30007F4F8F4F9F4F0895EE0FFF1F0590F49126
:102E4000E02D09940E942D17A59F900DB49F900D21
:102E5000A49F800D911D11240895A29FB001B39FDE
:102E6000C001A39F700D811D1124911DB29F700D93
:102E7000811D1124911D0895CF93DF938230910518
:102E800010F482E090E0E0910004F091010420E071
:102E900030E0A0E0B0E0309739F14081518148172F
:102EA0005907B8F04817590771F482819381109738
:102EB00029F013969C938E9312972CC09093010443
:102EC0008093000427C02115310531F042175307C4
:102ED00018F0A901DB0101C0EF019A01BD01DF017A
:102EE0000280F381E02DD7CF21153105F9F0281BA1
:102EF000390B2430310580F48A819B81611571057D
:102F000021F0FB019383828304C09093010480939A
:102F10000004FE01329644C0FE01E20FF31F8193CC
:102F2000919322503109398328833AC02091FE03BE
:102F30003091FF03232B41F42091020130910301D2
:102F40003093FF032093FE03209100013091010193
:102F50002115310541F42DB73EB740910401509140
:102F60000501241B350BE091FE03F091FF03E217EE
:102F7000F307A0F42E1B3F0B2817390778F0AC019C
:102F80004E5F5F4F2417350748F04E0F5F1F509379
:102F9000FF034093FE038193919302C0E0E0F0E0D1
:102FA000CF01DF91CF910895CF93DF93009709F47C
:102FB00087C0FC01329713821282C0910004D09125
:102FC0000104209781F420813181280F391F8091DD
:102FD000FE039091FF038217930779F5F093FF03A7
:102FE000E093FE036DC0DE0120E030E0AE17BF07C6
:102FF00050F412964D915C9113979D014115510526
:1030000009F1DA01F3CFB383A28340815181840FA8
:10301000951F8A179B0771F48D919C911197840FCE
:10302000951F02969183808312968D919C911397A0
:10303000938382832115310529F4F0930104E093F1
:1030400000043EC0D9011396FC93EE9312974D9164
:103050005D91A40FB51FEA17FB0779F48081918178
:10306000840F951F0296D90111969C938E938281AD
:10307000938113969C938E931297E0E0F0E08A81FF
:103080009B81009719F0FE01EC01F9CFCE01029669
:1030900028813981820F931F2091FE033091FF0315
:1030A0002817390769F4309729F410920104109217
:1030B000000402C013821282D093FF03C093FE0368
:1030C000DF91CF910895A0E0B0E0E9E6F8E10C943B
:1030D0004819EC01CB01209719F40E943C17B8C0A5
:1030E000FE01E60FF71F9E0122503109E217F30798
:1030F00008F4ACC0D9010D911C9111970617170760
:10310000B8F00530110508F49FC0A80144505109DA
:103110004617570708F498C002501109061B170BF1
:10312000019311936D937C93CF010E94D4178CC0AF
:103130005B01A01AB10A4E01800E911EA0910004FD
:10314000B0910104612C712C60E070E0109709F4DB
:1031500049C0A815B905C9F5ED90FC901197670114
:1031600042E0C40ED11CCA14DB0478F147018A186E
:103170009B08640142E0C40ED11C1296BC901297C9
:103180001396AC91B5E0CB16D10440F0B282A38384
:1031900091828082D9018D939C9309C00E5F1F4F4D
:1031A0000E0D1F1DF90111830083EB2DFA2F611500
:1031B000710531F0DB011396FC93EE93129744C036
:1031C000F0930104E09300043FC06D917C9111974E
:1031D0006616770608F43B01BD0112960D90BC916E
:1031E000A02DB4CF6091FE037091FF03681579059F
:1031F000E9F468167906D0F440910001509101017C
:103200004115510541F44DB75EB7609104017091CD
:103210000501461B570BE417F507C0F4F093FF03B5
:10322000E093FE03F901918380830EC00E943C1756
:103230007C01009759F0A801BE010E942D19CE0112
:103240000E94D417C70104C0CE0102C080E090E004
:10325000CDB7DEB7EEE00C946419FB01DC0102C0CF
:1032600001900D9241505040D8F70895DC0101C003
:103270006D9341505040E0F70895FB01DC0101904F
:103280000D920020E1F708952F923F924F925F92A6
:103290006F927F928F929F92AF92BF92CF92DF9266
:1032A000EF92FF920F931F93CF93DF93CDB7DEB7CB
:1032B000CA1BDB0B0FB6F894DEBF0FBECDBF09945F
:1032C0002A88398848885F846E847D848C849B84B6
:1032D000AA84B984C884DF80EE80FD800C811B81C4
:1032E000AA81B981CE0FD11D0FB6F894DEBF0FBEF3
:1032F000CDBFED01089510E0CEEED0E004C0FE0198
:103300000E941E172296C03FD107C9F7F894FFCF3D
:1033100000000204800001000000FFFFF401000033
:10332000E8030000E8030000E8030000436F6D7548
:103330006E69636163696F6E205043204C697374DA
:1033400061004361726265746F203134204C69738F
:10335000746F0045737461646F204553504552414A
:103360000073002D2D2D3E200020EFBFBD73652082
:103370007061736F20287029206F206C6520666152
:103380006C746120286629206F2074612062756545
:103390006E6F2862293F200045737461646F20506E
:1033A000524F434553414E444F0045737461646F1F
:1033B0002053616C7661720045737461646F2044C0
:1033C0006563696469720045737461646F20416468
:1033D000656C616E74650045737461646F2041644F
:1033E000656C616E74652052657065746972004524
:1033F000737461646F20497A7175696572646100E4
:1034000045737461646F20497A717569657264618E
:1034100020526570657469720045737461646F2031
:10342000446572656368610045737461646F20442C
:1034300065726563686120726570657469720045C4
:10344000737461646F204572726F720045737461AA
:10345000646F204C6576616E7461646F00457374AF
:1034600061646F2043616C6962726163696F6E00B1
:1034700045737461646F2044656661756C74000007
:10348000000000000A47136C0ADF09520A840A0090
:10349000000000CB1147134D1166115811A9110DF1
:1034A0000A006E616E00696E66006F7666002E001F
:00000001FF
